:100000000C9424010C9455010C9455010C94550149
:100010000C9455010C9455010C9455010C94550108
:100020000C9455010C9455010C9455010C945501F8
:100030000C9455010C9455010C9455010C945501E8
:100040000C9455010C9455010C9455010C945501D8
:100050000C9455010C9455010C9455010C94BD025F
:100060000C9455010C9431030C9407030C94550126
:100070000C9455010C9455010C9455010C945501A8
:100080000C9455010C9455010C9455010C94550198
:100090000C9455010C9455010C9455010C94550188
:1000A0000C9455010C9455010C9455010C94550178
:1000B0000C9455010C9455010C9455010C94550168
:1000C0000C9455010C9455010C9455010C94550158
:1000D0000C9455010C9455010C9455010C94550148
:1000E0000C94550107634236B79BD8A71A39685656
:1000F00018AEBAAB558C1D3CB7CC5763BD6DEDFD4A
:10010000753EF6177231BF000000803F0800000006
:10011000BE922449123EABAAAA2ABECDCCCC4C3EFC
:1001200000000080BEABAAAAAA3E00000000BF00EB
:100130000000803F0000000000084178D3BB4387E7
:10014000D1133D190E3CC3BD4282AD2B3E68EC82FB
:1001500076BED98FE1A93E4C80EFFFBE01C4FF7F80
:100160003F00000000000C9412020C945F020C94FB
:10017000B8010C94DA010C9467030C94CC010C9434
:100180007C010C94A90100002200250028002B000E
:100190002E003100340002010000050108010B01AE
:1001A00000002100240027002A002D003000330029
:1001B00001010000040107010A0105050505070505
:1001C00008080808020202020A0A080804040404D3
:1001D00001010101010101010303030303030303FF
:1001E000040707070C0C0C0C0C0C0C0C020202028E
:1001F00006060606060606060B0B0B0B0B0B0B0B77
:100200000102102020080810204010204080020128
:10021000020108040201010204081020408080400D
:10022000201008040201800402018040201008040C
:1002300002010804020101020408102040800102AA
:10024000040810204080670311241FBECFEFD1E2C5
:10025000DEBFCDBF00E00CBF12E0A0E0B2E0ECE8F2
:10026000F4E100E00BBF02C007900D92A632B10787
:10027000D9F722E0A6E2B2E001C01D92A23DB2078A
:10028000E1F711E0C4E2D1E000E006C021970109E6
:10029000802FFE010E947906C332D10780E0080753
:1002A000A9F70E94E3030C94440A0C9400003FB7A2
:1002B000F89480912B0290912C02A0912D02B09184
:1002C0002E0226B5A89B05C02F3F19F00196A11D4F
:1002D000B11D3FBFBA2FA92F982F8827BC01CD0190
:1002E000620F711D811D911D42E0660F771F881FEF
:1002F000991F4A95D1F70895AF92BF92CF92DF929E
:10030000EF92FF920F931F93CF93DF936C017B01CA
:100310008B01040F151FEB015E01AE18BF08C0175B
:10032000D10759F06991D601ED91FC910190F081CE
:10033000E02DC6011995892B79F7C501DF91CF9181
:100340001F910F91FF90EF90DF90CF90BF90AF90F3
:100350000895FC01538D448D252F30E0842F90E0CB
:10036000821B930B541710F0CF96089501970895B0
:10037000FC01918D828D981761F0A28DAE0FBF2F79
:10038000B11D5D968C91928D9F5F9F73928F90E0CF
:1003900008958FEF9FEF0895FC01918D828D98173E
:1003A00031F0828DE80FF11D858D90E008958FEF7B
:1003B0009FEF0895FC01918D228D892F90E0805C44
:1003C0009F4F821B91098F73992708958FE292E0C6
:1003D0000E94DA0121E0892B09F420E0822F0895A0
:1003E000FC01A48DA80FB92FB11DA35ABF4F2C91AA
:1003F000848D90E001968F739927848FA689B789A1
:100400002C93A089B1898C91837080648C93938D97
:10041000848D981306C00288F389E02D80818F7D3A
:1004200080830895EF92FF920F931F93CF93DF93F2
:10043000EC0181E0888F9B8D8C8D98131AC0E88920
:10044000F989808185FF15C09FB7F894EE89FF89EF
:100450006083E889F98980818370806480839FBF8D
:1004600081E090E0DF91CF911F910F91FF90EF908D
:100470000895F62E0B8D10E00F5F1F4F0F7311279D
:10048000E02E8C8D8E110CC00FB607FCFACFE889D8
:10049000F989808185FFF5CFCE010E94F001F1CF6F
:1004A000EB8DEC0FFD2FF11DE35AFF4FF0829FB74C
:1004B000F8940B8FEA89FB8980818062CFCFCF933C
:1004C000DF93EC01888D8823B9F0AA89BB89E8897C
:1004D000F9898C9185FD03C0808186FD0DC00FB622
:1004E00007FCF7CF8C9185FFF2CF808185FFEDCFA0
:1004F000CE010E94F001E9CFDF91CF91089580E015
:1005000090E0892B29F00E94E60181110E940000F1
:1005100080E090E0892B49F080E090E0892B29F081
:100520000E94000081110E94000080E090E0892B71
:1005300049F080E090E0892B29F00E9400008111B1
:100540000E94000080E090E0892B49F080E090E07C
:10055000892B29F00E94000081110C94000008955D
:10056000FC0101900020E9F73197AF01481B590BBE
:10057000BC018FE292E00C947C011F920F920FB6A7
:100580000F9211242F933F938F939F93AF93BF9319
:100590008091270290912802A0912902B0912A020D
:1005A0003091260223E0230F2D3758F50196A11D27
:1005B000B11D209326028093270290932802A093D6
:1005C0002902B0932A0280912B0290912C02A091D3
:1005D0002D02B0912E020196A11DB11D80932B0218
:1005E00090932C02A0932D02B0932E02BF91AF9155
:1005F0009F918F913F912F910F900FBE0F901F9061
:10060000189526E8230F0296A11DB11DD2CF1F9287
:100610000F920FB60F9211240BB60F922F933F93A8
:100620004F935F936F937F938F939F93AF93BF93FA
:10063000EF93FF938FE292E00E94F001FF91EF9120
:10064000BF91AF919F918F917F916F915F914F91EA
:100650003F912F910F900BBE0F900FBE0F901F90E8
:1006600018951F920F920FB60F9211240BB60F928E
:100670002F938F939F93EF93FF93E0913F02F0911D
:1006800040028081E0914502F091460282FD1DC04A
:100690009081809148028F5F8F7320914902821769
:1006A00041F0E0914802F0E0E15DFD4F958F8093CD
:1006B0004802FF91EF919F918F912F910F900BBE68
:1006C0000F900FBE0F901F9018958081F2CFCF939F
:1006D000DF93109232021092310288EE93E0A0E094
:1006E000B0E08093330290933402A0933502B0932C
:1006F000360285E092E09093300280932F0285ECE1
:1007000090E090933C0280933B0284EC90E09093C5
:100710003E0280933D0280EC90E0909340028093F3
:100720003F0281EC90E0909342028093410282EC80
:1007300090E0909344028093430286EC90E0909383
:10074000460280934502109248021092490210928C
:100750004A0210924B0286E390E09093CD02809380
:10076000CC0288E394E0A0E0B0E08093CE029093C6
:10077000CF02A093D002B093D102E6E3F2E024913D
:10078000E0EFF1E084918823C1F090E0880F991F99
:10079000FC01E056FE4FC591D491FC01EA57FE4F93
:1007A000A591B4919FB7F8948881E22FE0958E23AC
:1007B00088838C91E823EC939FBF81E080930002B3
:1007C000DF91CF910895CF93DF93CDB7DEB7E29756
:1007D0000FB6F894DEBF0FBECDBF789484B58260AB
:1007E00084BD84B5816084BD85B5826085BD85B5D5
:1007F000816085BD80916E00816080936E00109253
:1008000081008091810082608093810080918100CD
:10081000816080938100809180008160809380005E
:100820008091B10084608093B1008091B0008160BC
:100830008093B000809191008260809391008091BC
:1008400091008160809391008091900081608093FD
:1008500090008091A10082608093A1008091A1000E
:1008600081608093A1008091A00081608093A000AE
:10087000809121018260809321018091210181601A
:1008800080932101809120018160809320018091DB
:100890007A00846080937A0080917A0082608093ED
:1008A0007A0080917A00816080937A0080917A004A
:1008B000806880937A001092C100E0913F02F0912D
:1008C000400282E08083E0913B02F0913C02108282
:1008D000E0913D02F0913E028FEC8083109247023E
:1008E000E0914302F091440286E08083E09141026E
:1008F000F0914202808180618083E0914102F09119
:100900004202808188608083E0914102F09142023E
:10091000808180688083E0914102F0914202808171
:100920008F7D80831E0123E3220E311CCC24CA94C8
:1009300093E0D92EE12CF12C0E9457012B013C01B0
:1009400080ED882E87E0982EA12CB12C0E945701B3
:100950006419750986099709683E734081059105F8
:10096000A8F381E0881A9108A108B10898EE490E11
:1009700093E0591E611C711C81149104A104B104FF
:1009800029F7FE0131968091CC02863308F0865318
:1009900020917B00982F9870277F922B90937B005B
:1009A0002091000290E4299F900111248770822BEE
:1009B00080937C0080917A00806480937A0080919B
:1009C0007A0086FDFCCF909178008091790089278C
:1009D00098278927819391932E163F06A1F688E1E7
:1009E00090E0FE01319630E020E0A1E028173907C1
:1009F00084F46081718142815381461757072CF43A
:100A00005183408373836283A0E02F5F3F4F329610
:100A1000EDCFA11102C0019721F78091CE029091F4
:100A2000CF02A091D002B091D1028833E4E09E07BA
:100A3000A105B10509F05CC0A98DBA8D28E833E1A4
:100A40000E947206A70196010E942206CA01B901FE
:100A50000E949D0720E030E04AE754E40E94F3063C
:100A60002EE03DE24AE95FEB0E94BF0822EF32ED43
:100A70004DED51E40E9452080E9465078B0183E10D
:100A800092E00E94B0024801012E000CAA08BB08A7
:100A9000B7FEC0C06DE28FE292E00E9412022227F0
:100AA0003327A901281939094A095B0919A2CE017E
:100AB00081965C01CA01B9012AE030E040E050E0D3
:100AC0000E944106605DF50162935F0121153105C9
:100AD0004105510579F7A114B10419F0C5010E942F
:100AE000B00283E292E00E94B0020E947F0224CF13
:100AF000863BFEE49F07A105B105F9F4A98DBA8DE7
:100B000028E833E10E947206A70196010E9422069E
:100B1000CA01B9010E949D0720E030E04AE754E491
:100B20000E94F30621EE3AE744E95FEB0E94BF081A
:100B30002AEF3EE741E752E49DCF8E3A21E092074B
:100B4000A105B105F9F4A98DBA8D28E833E10E9419
:100B50007206A70196010E942206CA01B9010E94ED
:100B60009D0720E030E04AE754E40E94F3062BE8BA
:100B70003CE647E85FEB0E94BF082EEA37E441E419
:100B800051E478CF84399848A140B10509F077CF76
:100B9000A98DBA8D28E833E10E947206A70196015B
:100BA0000E942206CA01B9010E949D074B015C0107
:100BB00020E030E04FEA54E40E94EE0687FD27C0B3
:100BC00020E030E44EE455E4C501B4010E944D0834
:100BD0001816ECF020E030EA4CE854E4C501B4010A
:100BE0000E94810620E030E04AE754E40E94F306C8
:100BF00020E030E849E053E40E94F3069B01AC0199
:100C000060E070E080E89FE30E94F30635CF10E0DB
:100C100000E035CFA501940119A2CE0181965C01B7
:100C2000CA01B9012AE030E040E050E00E944106EC
:100C3000605DF50162935F012115310541055105A4
:100C400079F749CF052E97FB1EF400940E943906D0
:100C500057FD07D00E94410607FC03D04EF40C94C8
:100C6000390650954095309521953F4F4F4F5F4F36
:100C7000089590958095709561957F4F8F4F9F4F08
:100C80000895A1E21A2EAA1BBB1BFD010DC0AA1FCD
:100C9000BB1FEE1FFF1FA217B307E407F50720F0E5
:100CA000A21BB30BE40BF50B661F771F881F991F60
:100CB0001A9469F760957095809590959B01AC01A9
:100CC000BD01CF010895A29FB001B39FC001A39FB2
:100CD000700D811D1124911DB29F700D811D112475
:100CE000911D08950E946306B7FF0895821B930B20
:100CF0000895EE0FFF1F881F8BBF0790F691E02D20
:100D000019945058BB27AA270E9499060C941308DF
:100D10000E94050838F00E940C0820F039F49F3F2B
:100D200019F426F40C9402080EF4E095E7FB0C94F9
:100D3000FC07E92F0E94240858F3BA1762077307CB
:100D40008407950720F079F4A6F50C9446080EF474
:100D5000E0950B2EBA2FA02D0B01B90190010C01CB
:100D6000CA01A0011124FF27591B99F0593F50F4E3
:100D7000503E68F11A16F040A22F232F342F44273B
:100D8000585FF3CF469537952795A795F040539533
:100D9000C9F77EF41F16BA0B620B730B840BBAF003
:100DA0009150A1F0FF0FBB1F661F771F881FC2F76E
:100DB0000EC0BA0F621F731F841F48F48795779582
:100DC0006795B795F7959E3F08F0B0CF9395880F3C
:100DD00008F09927EE0F9795879508950E94D807F8
:100DE00008F481E008950E9407070C9413080E94FC
:100DF0000C0858F00E94050840F029F45F3F29F0E4
:100E00000C94FC0751110C9447080C9402080E94A2
:100E1000240868F39923B1F3552391F3951B550BDF
:100E2000BB27AA2762177307840738F09F5F5F4FBD
:100E3000220F331F441FAA1FA9F335D00E2E3AF0FC
:100E4000E0E832D091505040E695001CCAF72BD014
:100E5000FE2F29D0660F771F881FBB1F2617370765
:100E60004807AB07B0E809F0BB0B802DBF01FF2797
:100E700093585F4F3AF09E3F510578F00C94FC0771
:100E80000C9447085F3FE4F3983ED4F3869577953A
:100E90006795B795F7959F5FC9F7880F911D969550
:100EA000879597F90895E1E0660F771F881FBB1FAC
:100EB000621773078407BA0720F0621B730B840B59
:100EC000BA0BEE1F88F7E09508950E946C076894AE
:100ED000B1110C94470808950E942C0888F09F5780
:100EE00098F0B92F9927B751B0F0E1F0660F771F4E
:100EF000881F991F1AF0BA95C9F714C0B13091F044
:100F00000E944608B1E008950C944608672F782F98
:100F10008827B85F39F0B93FCCF386957795679508
:100F2000B395D9F73EF490958095709561957F4F74
:100F30008F4F9F4F0895E89409C097FB3EF490951A
:100F40008095709561957F4F8F4F9F4F9923A9F0A2
:100F5000F92F96E9BB279395F69587957795679531
:100F6000B795F111F8CFFAF4BB0F11F460FF1BC075
:100F70006F5F7F4F8F4F9F4F16C0882311F096E908
:100F800011C0772321F09EE8872F762F05C06623B6
:100F900071F096E8862F70E060E02AF09A95660F6F
:100FA000771F881FDAF7880F9695879597F9089528
:100FB000990F0008550FAA0BE0E8FEEF161617066A
:100FC000E807F907C0F012161306E407F50798F0D2
:100FD000621B730B840B950B39F40A2661F0232BEB
:100FE000242B252B21F408950A2609F4A140A69567
:100FF0008FEF811D811D089597F99F6780E870E04C
:1010000060E008959FEF80EC089500240A9416167E
:10101000170618060906089500240A9412161306E6
:10102000140605060895092E0394000C11F4882374
:1010300052F0BB0F40F4BF2B11F460FF04C06F5F90
:101040007F4F8F4F9F4F089557FD9058440F551F66
:1010500059F05F3F71F04795880F97FB991F61F03A
:101060009F3F79F087950895121613061406551FB1
:10107000F2CF4695F1DF08C0161617061806991F1D
:10108000F1CF86957105610508940895E894BB2712
:1010900066277727CB0197F908950E94D80708F4AF
:1010A0008FEF08950E9465080C9413080E940508AC
:1010B00038F00E940C0820F0952311F00C94FC07E6
:1010C0000C94020811240C9447080E94240870F321
:1010D000959FC1F3950F50E0551F629FF001729FDD
:1010E000BB27F00DB11D639FAA27F00DB11DAA1FEC
:1010F000649F6627B00DA11D661F829F2227B00D39
:10110000A11D621F739FB00DA11D621F839FA00DC3
:10111000611D221F749F3327A00D611D231F849F13
:10112000600D211D822F762F6A2F11249F5750406A
:101130009AF0F1F088234AF0EE0FFF1FBB1F661FE5
:10114000771F881F91505040A9F79E3F510580F0AE
:101150000C94FC070C9447085F3FE4F3983ED4F3EB
:10116000869577956795B795F795E7959F5FC1F752
:10117000FE2B880F911D9695879597F90895FA0192
:10118000EE0FFF1F309621053105A1F161157105A4
:1011900061F48038BFE39B0749F16894903881057A
:1011A00061F08038BFEF9B0741F099234AF5FF3F7C
:1011B000E1053105210519F1E8940894E795D90175
:1011C000AA2329F4AB2FBE2FF85FD0F310C0FF5F26
:1011D00070F4A695E0F7F73950F019F0FF3A38F4BB
:1011E0009F779F930DD00F9007FC9058089546F07D
:1011F0000C94020860E070E080E89FE308954FE7F8
:101200009F775F934F933F932F930E94BA092F913B
:101210003F914F915F910E9452080C94170929F455
:1012200016F00C94FC070C9446080C9402080E94DB
:101230002C08A8F39638A0F707F80F92E8942BE350
:101240003AEA48EB5FE70E9468080F920F920F920C
:101250004DB75EB70F920E94020AE4EEF0E00E94E2
:1012600049094F915F91EF91FF91E595EE1FFF1FA7
:1012700049F0FE57E0684427EE0F441FFA95E1F766
:101280004195550B0E947C090F9007FE0C94700944
:101290000895DF93CF931F930F93FF92EF92DF9206
:1012A0007B018C01689406C0DA2EEF010E9465086C
:1012B000FE01E894A5912591359145915591A6F3AC
:1012C000EF010E949906FE019701A801DA9469F7DF
:1012D000DF90EF90FF900F911F91CF91DF910895D4
:1012E0009B01AC0160E070E080E89FE30C94F306A2
:1012F0000C94FC070C94360A0E942C08D8F399230E
:10130000C9F3940F511DA3F39150504094F059F03C
:10131000882332F0660F771F881F91505040C1F725
:101320009E3F51052CF7880F911D9695879597F94B
:1013300008955F3FACF0983E9CF0BB27869577956B
:101340006795B79508F4B1609395C1F7BB0F58F74F
:1013500011F460FFE8CF6F5F7F4F8F4F9F4FE3CF58
:101360000C94470816F00C94360A0C940208689402
:101370000C94FC070E942C08A8F39923C1F3AEF348
:10138000DF93CF931F930F93FF92C92FDD278823FD
:101390002AF02197660F771F881FDAF720E030E0E8
:1013A00040E85FEB9FE3883920F0803E38F02196DB
:1013B0008F770E948206ECE0F1E004C00E94820672
:1013C000E9E3F1E00E9449098B01BE01EC01FB2E2B
:1013D0006F5771097595771F880B990B0E949D07B0
:1013E00028E132E741E35FE30E946508AF2D9801F1
:1013F000AE01FF900F911F91CF91DF910E9499064E
:101400000C941308FA01DC01AA0FBB1F9B01AC016D
:10141000BF5728F4222733274427507820C0B751DC
:1014200090F4AB2F0024469537952795011CA39582
:10143000D2F3002071F0220F331F441FB395DAF36B
:101440000ED00C94810661307105A0E88A07B94678
:1014500030F49B01AC016627772788279078309677
:1014600021F0208331834283538308959F3F31F0DD
:10147000915020F4879577956795B795880F911DC2
:0C1480009695879597F90895F894FFCF92
:10148C00010000000012027C01A9015F02DA01B820
:10149C0001CC014D65616E2064697374616E636586
:0614AC003A20000D0A00C9
:00000001FF
