:100000000C944F010C9480010C9480010C9480019D
:100010000C9480010C9480010C9480010C9480015C
:100020000C9480010C947C070C947C070C947C0746
:100030000C9480010C94F4080C9480010C948001C1
:100040000C9480010C946E0B0C9480010C94800134
:100050000C9480010C9480010C9480010C94AA08EB
:100060000C9480010C94630A0C94390A0C9480015E
:100070000C9480010C9480010C9480010C948001FC
:100080000C9480010C9480010C9480010C948001EC
:100090000C9480010C9480010C9480010C948607D0
:1000A0000C9480010C9480010C9480010C948001CC
:1000B0000C9480010C9480010C9480010C948D0AA6
:1000C0000C9480010C9480010C9480010C940F0A14
:1000D0000C94E5090C9480010C94BB090C949109D3
:1000E0000C9480010C9458050C9461020C945902F4
:1000F0000C944F020C94CE010C9403070C946E02E6
:100100000C942C100C9449050C9494020C94D50179
:100110000C9486020C947C020C948A020C940305C5
:100120000C9413060C94EA060C94AB010C948F0209
:100130000C9455020C9402020C94AC010C94160C15
:100140000C946C050C9474020C94C6050C947A05FE
:100150000C94AA010C94BB010C946A020C948202C8
:100160000C9464020C94EB060C9490020C945D02C7
:100170000C94A9010C9478020000200023002600B2
:1001800029002C002F0032000001000003010601AD
:1001900009010200002100240027002A002D003060
:1001A00000330001010000040107010A01000022E0
:1001B00000250028002B002E003100340002010031
:1001C00000050108010B01050505050705080808DC
:1001D00008020202020A0A080804040404010101D8
:1001E00001010101010303030303030303040707E0
:1001F000070C0C0C0C0C0C0C0C020202020606067E
:1002000006060606060B0B0B0B0B0B0B0B01021065
:100210002020080810204010204080020102010820
:1002200004020101020408102040808040201008D0
:100230000402018004020180402010080402010829
:100240000402010102040810204080010204081089
:1002500020408000000A0B02090C0D0E0807030461
:10026000010000000000000000000000000000008D
:10027000000000000000000000000000000000126C
:10028000111000000000000000000000000000004D
:1002900000000000000000000000160C2C101124CB
:1002A0001FBECFEFD1E2DEBFCDBF00E00CBF12E03A
:1002B000A0E0B2E0E8EAF5E200E00BBF02C0079080
:1002C0000D92A036B107D9F727E0A0E6B2E001C051
:1002D0001D92AA33B207E1F711E0CEE4D1E000E0CD
:1002E00006C021970109802FFE010E94A410CD3481
:1002F000D10780E00807A9F70E94FE0D0C94C212F6
:100300000C9400002091CE02260F3327331F213298
:100310003105ECF420911B03FC0190E080E02430D7
:1003200069F082E00895A091CE022191AC0144557C
:100330005D4FA40FB52FB11D2C930196861798F32E
:100340008091CE02680F6093CE0280E0089581E034
:100350000895089508950895E091AA028091A90250
:10036000E81730F4F0E0E757FD4F808190E0089502
:100370008FEF9FEF08959091AA028091A9022FEF2D
:100380003FEF981748F4E92FF0E0E757FD4F208141
:1003900030E09F5F9093AA02C90108958091A9025D
:1003A0009091AA02891B990B0895CF92DF92EF9248
:1003B000FF920F931F93CF93DF937C01CB018A01B0
:1003C00020912103222389F0EB016B01C40ED51E7D
:1003D000CC15DD0569F06991D701ED91FC91019093
:1003E000F081E02DC7011995F3CF642F0E9482019F
:1003F000C801DF91CF911F910F91FF90EF90DF9097
:10040000CF900895CF93DF931F92CDB7DEB7698366
:10041000209121032223F9F020914403203258F047
:1004200021E030E0FC013383228390E080E00F90F4
:10043000DF91CF91089580912203E82FF0E0ED5DE8
:10044000FC4F998190838F5F8093220380934403B4
:1004500081E090E0ECCF61E0CE0101960E94820144
:10046000F7CF8150823108F05AC0E82FF0E088279A
:10047000E35CFD4F8F4F0C94A4105D0261024F02AC
:10048000550259028F0264026A026E0274027802F7
:100490007C02820286028F028A029002940280917C
:1004A00080008F77809380000895809180008F7DF9
:1004B000F9CF80918000877FF5CF84B58F7784BD99
:1004C000089584B58F7DFBCF8091B0008F778093A6
:1004D000B00008958091B0008F7DF9CF8091900099
:1004E0008F77809390000895809190008F7DF9CF51
:1004F00080919000877FF5CF8091A0008F778093C7
:10050000A00008958091A0008F7DF9CF8091A00078
:10051000877FF5CF809120018F7780932001089508
:10052000809120018F7DF9CF80912001877FF5CFC9
:100530001F93CF93DF93282F30E0F901ED5AFD4F41
:100540008491F901E35FFD4FD491F901E953FE4F26
:10055000C491CC23A9F0162F81110E943102EC2FF7
:10056000F0E0EE0FFF1FE355FE4FA591B4918FB75A
:10057000F894EC91111108C0D095DE23DC938FBF65
:10058000DF91CF911F910895DE2BF8CF10921B03BE
:1005900081E080931A031092F50261E084E10E94E9
:1005A000980261E085E10E949802E9EBF0E0808129
:1005B0008E7F808380818D7F808388E48093B800E4
:1005C00085E48093BC000895CF93DF9391E09093EE
:1005D000AB028823B9F0C091B800D091BA008091E5
:1005E000BC008A7B8093BC0060E084E10E9498029A
:1005F00060E085E10E9498020E94C602D093BA0092
:10060000C093B800DF91CF910895CF93DF9390E02E
:10061000FC01E35FFD4F249189539E4FFC018491BF
:100620008823D1F090E0880F991FFC01ED56FE4F12
:10063000A591B491FC01E355FE4FC591D491611190
:100640000EC09FB7F8948C91E22FE0958E238C9387
:100650002881E223E8839FBFDF91CF9108958FB770
:10066000F894EC91E22BEC938FBFF6CF1F93CF93CE
:10067000DF93EC01162F88818C3008F046C061E0D2
:10068000812F0E940503888195E0899FF001112444
:10069000E650FA4F1F736081607C612B6083138288
:1006A00014822CE0622F0E949810829FB0011124C6
:1006B00030E020E095E0AB01420F531F949FF00122
:1006C000959FF00D1124E650FA4F408146FD13C06E
:1006D0002F5F3F4F2C30310571F781110CC0109204
:1006E000800082E080938100109285001092840047
:1006F00086BB80936F00E88185E0E89FF0011124BC
:10070000E650FA4F8081806480838881DF91CF91A9
:100710001F9108953FB7F8948091850290918602C9
:10072000A0918702B091880226B5A89B05C02F3FF3
:1007300019F00196A11DB11D3FBFBA2FA92F982F07
:100740008827BC01CD01620F711D811D911D42E002
:10075000660F771F881F991F4A95D1F70895CF928A
:10076000DF92EF92FF920F931F93CF93DF93D0917D
:10077000440381E0D13208F09CC0C09143030E9441
:100780008A036B017C0180911B0381116CC082E0A4
:1007900080931B0381E080931A038FEF80931903EA
:1007A00010921803D0931703A3E2B3E0E7EFF2E04F
:1007B00080E0D8138DC01092F6028091F602CC0F23
:1007C000C82BC093F6028091F502813009F084C0F5
:1007D0001092F5020E948A036B017C018091F6025F
:1007E0008093BB0080911D0390911E03A0911F0375
:1007F000B0912003892B8A2B8B2BA1F00E948A03B6
:1008000000911D0310911E0320911F0330912003BE
:100810006C197D098E099F090617170728073907E4
:1008200008F442C08091BC0083FDD8CF85EC809352
:10083000BC000E948A036B017C0180911B03823003
:1008400009F44CC0809119038F3F09F469C080916D
:100850001903803209F466C080911903803309F4CA
:1008600063C084E026C080911D0390911E03A09177
:100870001F03B0912003892B8A2B8B2B09F483CF84
:100880000E948A0300911D0310911E0320911F03F3
:10089000309120036C197D098E099F0906171707EF
:1008A0002807390708F06FCF80911C030E94E402EB
:1008B00085E0109222031092440310922103DF91ED
:1008C000CF911F910F91FF90EF90DF90CF900895FF
:1008D0009D9191938F5F6DCF85EEA9CF80911D0380
:1008E00090911E03A0911F03B0912003892B8A2BA6
:1008F0008B2B09F4A2CF0E948A0300911D03109153
:100900001E0320911F03309120036C197D098E096D
:100910009F09061717072807390708F08ECFC4CF9D
:1009200080E0C7CF82E0C5CF83E0C3CF0F931F9392
:10093000CF93DF93162F072FCFEFD6E0AA85BB8585
:100940009C8521E02093210390934303109222037E
:1009500010924403ED91FC9111970190F081E02DEC
:10096000682FCD0119958A859B85DC01ED91FC915D
:100970000190F081E02D602F19958A859B85DC011F
:10098000ED91FC910190F081E02D612F1995DF919F
:10099000CF911F910F910C94AF038F929F92AF92C2
:1009A000BF92CF92DF92EF92FF920E948A034B0197
:1009B0005C0188EEC82E83E0D82EE12CF12C0E9439
:1009C0008A03681979098A099B09683E7340810581
:1009D0009105A8F321E0C21AD108E108F10888EED8
:1009E000880E83E0981EA11CB11CC114D104E1043F
:1009F000F10429F7FF90EF90DF90CF90BF90AF9078
:100A00009F908F900895AF92BF92CF92DF92EF9216
:100A1000FF920F931F93CF93DF936C017B018B01A8
:100A2000040F151FEB015E01AE18BF08C017D107F8
:100A300059F06991D601ED91FC910190F081E02D82
:100A4000C6011995892B79F7C501DF91CF911F91C7
:100A50000F91FF90EF90DF90CF90BF90AF900895EF
:100A6000FC01A089B1898C91A689B78982FD0FC04C
:100A70009C91818D8F5F8F73228D821749F0A18D9C
:100A8000AE0FBF2FB11D5D969C93818F08958C9101
:100A90000895FC01538D448D252F30E0842F90E084
:100AA000821B930B541710F0CF9608950197089569
:100AB000FC01918D828D981761F0A28DAE0FBF2F32
:100AC000B11D5D968C91928D9F5F9F73928F90E088
:100AD00008958FEF9FEF0895FC01918D828D9817F7
:100AE00031F0828DE80FF11D858D90E008958FEF34
:100AF0009FEF0895FC01918D228D892F90E0805CFD
:100B00009F4F821B91098F739927089581E593E088
:100B10000E947A0521E0892B09F420E0822F0895B4
:100B20008EEE93E00E947A0521E0892B09F420E003
:100B3000822F08958BE894E00E947A0521E0892BAA
:100B400009F420E0822F0895FC01A48DA80FB92F8D
:100B5000B11DA35ABF4F2C91848D90E001968F73E5
:100B60009927848FA689B7892C93A089B1898C9104
:100B7000837080648C93938D848D981306C0028853
:100B8000F389E02D80818F7D80830895EF92FF921D
:100B90000F931F93CF93DF93EC0181E0888F9B8DA0
:100BA0008C8D98131AC0E889F989808185FF15C05A
:100BB0009FB7F894EE89FF896083E889F98980817D
:100BC0008370806480839FBF81E090E0DF91CF914C
:100BD0001F910F91FF90EF900895F62E0B8D10E06E
:100BE0000F5F1F4F0F731127E02E8C8D8E110CC0DD
:100BF0000FB607FCFACFE889F989808185FFF5CF28
:100C0000CE010E94A405F1CFEB8DEC0FFD2FF11D5D
:100C1000E35AFF4FF0829FB7F8940B8FEA89FB8964
:100C200080818062CFCFCF93DF93EC01888D8823C2
:100C3000B9F0AA89BB89E889F9898C9185FD03C03F
:100C4000808186FD0DC00FB607FCF7CF8C9185FF24
:100C5000F2CF808185FFEDCFCE010E94A405E9CFC0
:100C6000DF91CF910895F0E0E0E0199480E090E00A
:100C7000892B29F00E949A0581110E94000080E0D2
:100C800090E0892B49F080E090E0892B29F00E94C8
:100C9000000081110E9400000E94900581110E94B5
:100CA000330680E090E0892B29F00E9486058111AF
:100CB0000C94000008958EBD00000DB407FEFDCF1A
:100CC0008EB50895CF92DF92EF92FF92CF93DF938C
:100CD000DC01EC91EC3008F04EC0CE2FD0E0B5E056
:100CE000EB9FF0011124E650FA4F838158E8C52E9E
:100CF000D12CC81AD10887FDD394CC0CDD1CCC0CA8
:100D0000DD1C683C71050CF03DC00D2C000CEE089C
:100D1000FF08848128E532E0281B310987FD3395DF
:100D2000220F331F220F331F032E000C440B550BD1
:100D30002C193D094E095F09DB010E945F1024EB6D
:100D400030E040E050E00E943510C20ED31EE41E99
:100D5000F51E8FB7F89495E09C9FF0019D9FF00DD4
:100D60001124E650FA4F96E0C91AD108CC0CDD1CCC
:100D7000D282C1828FBFDF91CF91FF90EF90DF9041
:100D8000CF9008956C157D0524F3848128E5C22E4B
:100D900022E0D22EC81AD10887FDD394CC0CDD1CDA
:100DA000CC0CDD1C6C157D05A4F66B01D2CFFC01CB
:100DB000248131E0309321032093430310922203D6
:100DC000109244038485682B85E493E00E9402021C
:100DD0000C94AF03089590E080E008950F931F9363
:100DE000CF938C01C62F64600E94D7066C2F6B7F57
:100DF000C8010E94D70683EC90E00197F1F7CF91EC
:100E00001F910F9108950F931F93CF93DF938C0140
:100E1000C62FD62FD07FD1606D2F0E94D7066D2FA1
:100E2000C8010E94EE0680E1C89FE0011124C16064
:100E30006C2FC8010E94D7066C2FC8010E94EE06D5
:100E400081E090E0DF91CF911F910F910895CF93B2
:100E5000DF93FC0101900020E9F73197AF01481BB7
:100E6000590BBC018BE894E00E940305EC0142E0C1
:100E700050E06FE372E08BE894E00E9403058C0F72
:100E80009D1FDF91CF91089585ED8093BC008091E7
:100E90001D0390911E03A0911F03B091200307969C
:100EA000A11DB11D23E0B695A795979587952A9525
:100EB000D1F72091BC0024FD03C010921B030895BC
:100EC00040911D0350911E0360911F0370912003F8
:100ED000452B462B472B69F30097A105B10541F03F
:100EE00025E32A95F1F700000197A109B109E1CFA7
:100EF00080911C030C94E4021F920F920FB60F9284
:100F000011240F900FBE0F901F9018951F920F92F3
:100F10000FB60F9211240BB60F922F933F934F935E
:100F20005F936F937F938F939F93AF93BF93EF9351
:100F3000FF938091B900887F803609F44DC008F096
:100F400040C0883209F4A9C028F5803109F49DC059
:100F5000C8F4882309F4FBC0883009F496C0FF91D7
:100F6000EF91BF91AF919F918F917F916F915F9121
:100F70004F913F912F910F900BBE0F900FBE0F908E
:100F80001F901895883109F488C0803241F780930A
:100F9000190314C0803409F49DC040F48033B9F3C0
:100FA0008833E9F68093190385ECB0C0803509F4E5
:100FB00085C0883509F496C0883489F60E944407B4
:100FC000CECF883909F48CC038F5883729F050F431
:100FD000883611F0803719F683E080931B03109256
:100FE000F20257C0883809F47BC0803919F0803884
:100FF00009F0B5CF8091F202803208F071C0E09123
:10100000F20281E08E0F8093F2028091BB00F0E04B
:10101000EE52FD4F80833DC0803B39F0E0F4803AD2
:1010200009F479C0883A09F09ACF84E080931B03D1
:101030001092CF021092CE02E091CC02F091CD023C
:1010400019958091CE0281110FC081E08093CE026C
:101050001092AC0209C0803C09F4A6CF883C09F488
:10106000A3CF883B09F07BCFE091CF0281E08E0FC8
:101070008093CF02F0E0E455FD4F80818093BB0068
:101080009091CF028091CE0229C08091F602809388
:10109000BB0085EC8093BC0062CF909118038091D7
:1010A0001703981758F5E091180381E08E0F80938D
:1010B0001803F0E0E950FD4F8081E9CFE09118037B
:1010C00081E08E0F809318038091BB00F0E0E9501F
:1010D000FD4F808390911803809117039817C8F2F1
:1010E00085E8D8CFE091180381E08E0F8093180334
:1010F0008091BB00F0E0E950FD4F808380911A039E
:1011000081115CCF81E08093F50284EA8093BC007A
:1011100010921B0324CF85EC8093BC0010921B031C
:101120008091F202803230F4E091F202F0E0EE526F
:10113000FD4F10826091F20270E0E091D002F091D8
:10114000D10282ED92E019951092F20208CF10922E
:10115000190334CF1F920F920FB60F9211242F93C1
:101160003F938F939F93AF93BF9380918102909110
:101170008202A0918302B09184023091800223E028
:10118000230F2D3758F50196A11DB11D2093800224
:101190008093810290938202A0938302B093840291
:1011A0008091850290918602A0918702B091880279
:1011B0000196A11DB11D8093850290938602A09394
:1011C0008702B0938802BF91AF919F918F913F9119
:1011D0002F910F900FBE0F901F90189526E8230FA8
:1011E0000296A11DB11DD2CF1F920F920FB60F9282
:1011F00011240BB60F922F933F934F935F936F93EE
:101200007F938F939F93AF93BF93EF93FF938091BF
:101210007B0290917C02A0917D02B0917E02892B8D
:101220008A2B8B2BD1F190917A0280910000892733
:101230008093000080917B0290917C02A0917D02BE
:10124000B0917E02181619061A061B069CF48091AE
:101250007B0290917C02A0917D02B0917E02019769
:10126000A109B10980937B0290937C02A0937D0237
:10127000B0937E02FF91EF91BF91AF919F918F91BB
:101280007F916F915F914F913F912F910F900BBE86
:101290000F900FBE0F901F90189580910002E2E909
:1012A000F1E0E4919FEF90930002E230E9F040F426
:1012B000EE2389F0E13091F060E00E949802DACFED
:1012C000E43049F110F1E530B9F7909173009D7F5A
:1012D00090937300F1CF10926E00EECF90916F005B
:1012E0009D7F90936F00E8CF909170009D7F9093C9
:1012F000700091E09093B0009091B100987F94605D
:101300009093B1001092B300D7CF909171009D7F60
:1013100090937100D1CF909172009D7F9093720055
:10132000CBCF1F920F920FB60F9211240BB60F92D4
:101330002F933F934F935F936F937F938F939F93DD
:10134000AF93BF93EF93FF9381E593E00E94A405D1
:10135000FF91EF91BF91AF919F918F917F916F918D
:101360005F914F913F912F910F900BBE0F900FBE49
:101370000F901F9018951F920F920FB60F92112485
:101380000BB60F922F933F934F935F936F937F937F
:101390008F939F93AF93BF93EF93FF9381E593E078
:1013A0000E943005FF91EF91BF91AF919F918F9176
:1013B0007F916F915F914F913F912F910F900BBE55
:1013C0000F900FBE0F901F9018951F920F920FB69F
:1013D0000F9211240BB60F922F933F934F935F936D
:1013E0006F937F938F939F93AF93BF93EF93FF93ED
:1013F0008EEE93E00E94A405FF91EF91BF91AF9113
:101400009F918F917F916F915F914F913F912F911C
:101410000F900BBE0F900FBE0F901F9018951F924C
:101420000F920FB60F9211240BB60F922F933F938A
:101430004F935F936F937F938F939F93AF93BF93DC
:10144000EF93FF938EEE93E00E943005FF91EF91B2
:10145000BF91AF919F918F917F916F915F914F91CC
:101460003F912F910F900BBE0F900FBE0F901F90CA
:1014700018951F920F920FB60F9211240BB60F9270
:101480002F933F934F935F936F937F938F939F938C
:10149000AF93BF93EF93FF938BE894E00E94A40572
:1014A000FF91EF91BF91AF919F918F917F916F913C
:1014B0005F914F913F912F910F900BBE0F900FBEF8
:1014C0000F901F9018951F920F920FB60F92112434
:1014D0000BB60F922F933F934F935F936F937F932E
:1014E0008F939F93AF93BF93EF93FF938BE894E019
:1014F0000E943005FF91EF91BF91AF919F918F9125
:101500007F916F915F914F913F912F910F900BBE03
:101510000F900FBE0F901F9018951F920F920FB64D
:101520000F9211240BB60F922F933F934F935F931B
:101530006F937F938F939F93AF93BF93CF93DF93DB
:10154000EF93FF932091290530E0F901ED5AFD4F0B
:101550008491F901E35FFD4FD491F901E953FE4F06
:10156000C491CC2379F081110E943102EC2FF0E07C
:10157000EE0FFF1FE858FE4FA591B491EC91ED23BB
:1015800081E009F480E020912D0530912E052F5F38
:101590003F4F30932E0520932D0590912C059536C5
:1015A00018F096E09093280590912805943009F45E
:1015B00066C0B8F49230F1F0933009F444C09091D1
:1015C0002B05992309F46BC081117EC080912A05F7
:1015D000882309F463C080912A0561E00E94980283
:1015E0005EC0953009F457C0963049F791E090936A
:1015F000F9054FC08111E3CF20912D0530912E05C3
:101600002436310528F410922E0510922D05D7CFDF
:101610001092F90510922C05E0912C0591E09E0F97
:1016200090932C05F0E020912D0530912E05EE0FC2
:10163000FF1FE85DFA4F3087278310922E05109226
:101640002D0593E019C0813009F0B9CFE0912C0548
:1016500091E09E0F90932C05F0E020912D053091A4
:101660002E05EE0FFF1FE85DFA4F3087278310929B
:101670002E0510922D0594E090932805A0CF882385
:1016800059F220912D0530912E052536310508F4AB
:1016900096CF95E0F1CF811192CFB5CF2F9AFF91E0
:1016A000EF91DF91CF91BF91AF919F918F917F91FA
:1016B0006F915F914F913F912F910F900BBE0F90C3
:1016C0000FBE0F901F90189580912A05882321F056
:1016D00080912A0560E082CF2F98E1CF1F920F9270
:1016E0000FB60F9211240BB60F922F933F934F9387
:1016F0005F936F937F938F939F93AF93BF93CF939A
:10170000DF93EF93FF9380917902C0913606D0E08A
:1017100087FF23C010928500109284008091790287
:101720008F5F8093790280917902082E000C990BCB
:101730008C179D0724F4809179028C3074F180918C
:1017400084009091850084349C4908F465C08091A0
:10175000840090918500049661C080917902082EE2
:10176000000C990B8C179D07CCF63091790225E07F
:101770003203F0011124E650FA4F808186FFCECF6C
:10178000309179023203F0011124E650FA4F808142
:1017900060E08F730E949802C1CF80918400909185
:1017A00085003091790225E03203F0011124E650E2
:1017B000FA4F41815281840F951F90938900809345
:1017C0008800309179023203F0011124E650FA4F7B
:1017D000808186FF0CC0309179023203F001112420
:1017E000E650FA4F808161E08F730E949802FF916A
:1017F000EF91DF91CF91BF91AF919F918F917F91A9
:101800006F915F914F913F912F910F900BBE0F9071
:101810000FBE0F901F90189580E49CE9909389006B
:10182000809388008FEF80937902E1CF1092480374
:101830001092470388EE93E0A0E0B0E08093490364
:1018400090934A03A0934B03B0934C0323E132E0FF
:101850003093460320934503109254031092530390
:101860008093550390935603A0935703B093580366
:1018700025E232E0309352032093510345E351E0D7
:1018800050935E0340935D0344E351E05093600343
:1018900040935F0340E351E0509362034093610340
:1018A00041E351E0509364034093630342E351E00A
:1018B000509366034093650346E351E050936803F9
:1018C0004093670310926A0310926B0310926C03AB
:1018D00010926D031092F1031092F0038093F203C3
:1018E0009093F303A093F403B093F5033093EF03C5
:1018F0002093EE0345ED50E05093FB034093FA0331
:1019000044ED50E05093FD034093FC0340ED50E064
:101910005093FF034093FE0341ED50E050930104C8
:101920004093000442ED50E05093030440930204BE
:1019300046ED50E0509305044093040410920704D0
:10194000109208041092090410920A0410928E0456
:1019500010928D0480938F0490939004A09391042F
:10196000B093920430938C0420938B0485EC90E028
:10197000909398048093970484EC90E090939A0459
:101980008093990480EC90E090939C0480939B0456
:1019900081EC90E090939E0480939D0482EC90E013
:1019A0009093A00480939F0486EC90E09093A2040F
:1019B0008093A1041092A4041092A5041092A6048E
:1019C0001092A7048091070290910802A091090249
:1019D000B0910A028093200790932107A0932207D9
:1019E000B093230780910B0290910C02A0910D02FD
:1019F000B0910E028093240790932507A0932607A9
:101A0000B093270784E08093280787E08093290715
:101A100010922A0784EB80932B0786E180932C0792
:101A200088E180932D0787E180932E0789E18093D9
:101A30002F07E0913606EC3008F4A9C08FEF8093B1
:101A40003007E0913606EC3008F4B2C08FEF809397
:101A500031078CE08093FF0684E28093000786E0E4
:101A60008093010785E0809302078FE1809303074D
:101A70008EE18093040783E28093050782E28093DE
:101A8000060785E48093070784E48093080780E4D1
:101A900080930B07109210071092110710921207F3
:101AA0001092130710921407109215071092160740
:101AB00010921707E1E4F6E08FEF9FEFDC0112824E
:101AC00013821482158216821782108611868387EC
:101AD0009487A587B6878787908BA18BB28B128658
:101AE00011821082739626E0EF3FF20741F78DE0F6
:101AF00090E00E94AC10FC011382128287E392E016
:101B000091838083118687E2848384E1828784E0E5
:101B100083871486F0933E06E0933D0610923F06BD
:101B20001092400685E28093290510922B051092B1
:101B300038061092370610923A0610923906109223
:101B40003C0610923B0661E070E090E080E00E946D
:101B5000D1110097F1F190933806809337061092D7
:101B60003A061092390620913B0630913C06232B11
:101B700011F4FC01108210923C0610923B0661E4C5
:101B800072E080913706909138060C94BB1281E088
:101B90008E0F80933606E093300725E0E29FF00138
:101BA0001124E650FA4F88EB9BE09283818349CF62
:101BB00081E08E0F80933606E093310785E0E89F41
:101BC000F0011124E650FA4F88EB9BE09283818369
:101BD00040CF8091370690913806009711F00E940F
:101BE0004811109238061092370610923C06109257
:101BF0003B0610923A06109239060895789484B5FF
:101C0000826084BD84B5816084BD85B5826085BDF8
:101C100085B5816085BD80916E00816080936E0086
:101C20001092810080918100826080938100809178
:101C30008100816080938100809180008160809329
:101C400080008091B10084608093B1008091B000E9
:101C500081608093B00080919100826080939100B8
:101C600080919100816080939100809190008160CB
:101C7000809390008091A10082608093A100809168
:101C8000A10081608093A1008091A0008160809379
:101C9000A000809121018260809321018091210127
:101CA00081608093210180912001816080932001D7
:101CB00080917A00846080937A0080917A008260BB
:101CC00080937A0080917A00816080937A0080917D
:101CD0007A00806880937A001092C100E0919B04A2
:101CE000F0919C0482E08083E0919704F091980445
:101CF0001082E0919904F0919A048FEC8083109205
:101D0000A304E0919F04F091A00486E08083E09119
:101D10009D04F0919E04808180618083E0919D0408
:101D2000F0919E04808188608083E0919D04F09111
:101D30009E04808180688083E0919D04F0919E04E0
:101D400080818F7D808361E0809100070E94050380
:101D500060E0809100070E94980260E08091FF0699
:101D60000E94050385E493E090930A078093090796
:101D70001092AA021092A902109222031092440318
:101D80000E94C60289EA91E09093CD028093CC0232
:101D90008AEA91E09093D1028093D00280E090E1B2
:101DA000A0E0B0E080930C0790930D07A0930E077E
:101DB000B0930F078AE090E0A0E0B0E080931007B6
:101DC00090931107A0931207B093130780E090E05F
:101DD000A0E0B0E48093140790931507A093160732
:101DE000B093170760E070E185E00E9496046FE908
:101DF00079E380E00E94960401E017E0CFEFD6E09F
:101E00009CEFA92E91E0B92E22E4822E22E0922EA0
:101E10003BECE32E37E0F32E4BE8C42EDD24D394C5
:101E2000F801928181918F01898F9A8F61E00E94E0
:101E3000050361E08A8D0E940503F8019581838185
:101E40008D8F9E8F61E00E94050360E08E8D0E9461
:101E5000050361E08D8D0E9498027FB6F894809111
:101E60007F02811125C0F5018491F4019491E82F3E
:101E7000F0E0EE0FFF1FED56FE4FA591B4918C914F
:101E8000982321F461E085E30E94980261E085E3F4
:101E90000E9405038CB580618CBD8CB580648CBDBF
:101EA00061E084E30E94050361E083E30E9405038F
:101EB00080917F028F5F80937F027FBEC701019771
:101EC000F1F760E08D8D0E94980288E80E945B0621
:101ED00083E00E945B0661E08D8D0E949802C7013D
:101EE0000197F1F760E08D8D0E94980288E90E94C9
:101EF0005B0680E00E945B0680E00E945B0680E05B
:101F00000E945B0680E00E945B0661E08D8D0E946E
:101F10009802C6010197F1F760E08D8D0E9498024A
:101F200080EE0E945B0661E08D8D0E9498022296F1
:101F3000F7E0C330DF0709F073CFC4E2D7E060E019
:101F400089910E94050387E0C832D807C1F76091E4
:101F5000280770E080E397E00E94360390912E07F7
:101F600080912C07809332079093330760E00E94A2
:101F7000050361E0809133070E94050360E08091D2
:101F800033070E9498026091290770E081E397E08F
:101F90000E94360390912F0780912D07809334077C
:101FA0009093350760E00E94050361E0809135075A
:101FB0000E94050360E0809135070E949802F89422
:101FC0001092200189E08093210180E293E09093B8
:101FD000290180932801109225011092240182E0AA
:101FE0008093730078948093280510922C0580913B
:101FF000290560E00E9405036091280770E080E3F6
:1020000097E00E94360380912A07811119C070E081
:1020100060E080E397E00E9462060E94CD04809118
:102020002A07833820F480912B07823870F482E4E9
:1020300092E00E9427070E94CD040E943606E3CF5B
:1020400082E492E00E942707E8CF62E870E080E334
:1020500097E00E946206EFCF809137069091380694
:10206000009711F00C9448110895052E97FB1EF46B
:1020700000940E944C1057FD07D00E94671007FC87
:1020800003D04EF40C944C1050954095309521950A
:102090003F4F4F4F5F4F0895909580957095619594
:1020A0007F4F8F4F9F4F08950E948910A59F900DDD
:1020B000B49F900DA49F800D911D11240895B7FF2A
:1020C0000C9454100E945410821B930B0895A1E2AB
:1020D0001A2EAA1BBB1BFD010DC0AA1FBB1FEE1FA2
:1020E000FF1FA217B307E407F50720F0A21BB30BED
:1020F000E40BF50B661F771F881F991F1A9469F769
:1021000060957095809590959B01AC01BD01CF01C4
:102110000895A29FB001B39FC001A39F700D811DC0
:102120001124911DB29F700D811D1124911D0895E0
:10213000991B79E004C0991F961708F0961B881F19
:102140007A95C9F780950895EE0FFF1F881F8BBF02
:102150000790F691E02D19940F931F93CF93DF937F
:102160008230910510F482E090E0E0913807F09120
:10217000390730E020E0B0E0A0E0309799F4211575
:10218000310509F44AC0281B390B24303105D8F534
:102190008A819B816115710589F1FB01938382839B
:1021A000FE0111C0408151810281138148175907F6
:1021B000E0F04817590799F4109761F012960C93C4
:1021C000129713961C933296CF01DF91CF911F91F6
:1021D0000F9108950093380710933907F4CF211514
:1021E000310551F04217530738F0A901DB019A017C
:1021F000BD01DF01F801C1CFEF01F9CF909339079D
:1022000080933807CDCFFE01E20FF31F81939193A6
:102210002250310939832883D7CF20913607309156
:102220003707232B41F420910302309104023093AD
:1022300037072093360720910102309102022115C1
:10224000310541F42DB73EB7409105025091060289
:10225000241B350BE0913607F0913707E217F3079F
:10226000A0F42E1B3F0B2817390778F0AC014E5F06
:102270005F4F2417350748F04E0F5F1F5093370705
:1022800040933607819391939FCFF0E0E0E09CCF9D
:10229000CF93DF930097E9F0FC013297138212820B
:1022A000A0913807B0913907ED0130E020E0109798
:1022B000A1F420813181820F931F20913607309144
:1022C00037072817390709F061C0F0933707E09303
:1022D0003607DF91CF910895EA01CE17DF07E8F5C1
:1022E0004A815B819E0141155105B1F7E901FB83EC
:1022F000EA8349915991C40FD51FEC17FD0761F48A
:10230000808191810296840F951FE90199838883CA
:10231000828193819B838A83F0E0E0E012968D9125
:102320009C9113970097B9F52D913C911197CD0190
:102330000296820F931F2091360730913707281796
:10234000390739F6309751F510923907109238074E
:10235000B0933707A0933607BCCFD383C2834081A5
:102360005181840F951FC817D90761F44E5F5F4FE5
:1023700088819981480F591F518340838A819B81AD
:10238000938382832115310509F0B0CFF09339078B
:10239000E09338079ECFFD01DC01C0CF138212828B
:1023A000D7CF4F925F926F927F928F929F92AF9210
:1023B000BF92CF92DF92EF92FF920F931F93CF9332
:1023C000DF938C01009799F4CB01DF91CF911F919E
:1023D0000F91FF90EF90DF90CF90BF90AF909F90C4
:1023E0008F907F906F905F904F900C94AC10FC0199
:1023F000E60FF71F9C0122503109E217F30708F49A
:10240000AEC0D901CD91DC911197C617D70720F145
:10241000C530D10578F0CE0104978617970750F0A4
:10242000C61BD70B2297C193D1936D937C93CF0199
:102430000E944811C801DF91CF911F910F91FF9029
:10244000EF90DF90CF90BF90AF909F908F907F9054
:102450006F905F904F9008955B01AC1ABD0A4C01DC
:102460008C0E9D1EA0913807B0913907512C412C3C
:10247000F12CE12C109731F58091360790913707B8
:102480008815990509F05CC04616570608F058C033
:102490008091010290910202009741F48DB79EB79E
:1024A0004091050250910602841B950BE817F9072D
:1024B00008F055C0F0933707E0933607F9017183B0
:1024C0006083B8CF8D919C91119712966C90129762
:1024D00013967C901397A815B90559F56C0142E045
:1024E000C40ED11CCA14DB0420F1AC014A195B09EB
:1024F000DA011296159780F06282738251834083CD
:10250000D9016D937C93E114F10471F0D701139616
:10251000FC93EE9312978ECF22968C0F9D1FF9019C
:1025200091838083F301EFCFF0933907E09338076D
:1025300081CF4816590608F42C017D01D3019ACFAA
:10254000CB010E94AC107C01009749F0AE01B801AC
:102550000E94B212C8010E94481187016BCF10E09F
:1025600000E068CFFB01DC0102C001900D924150F8
:102570005040D8F70895FB01DC0101900D92002036
:10258000E1F7089511E0CEE4D1E000E006C0802F2D
:10259000FE010E94A4102196011DCF34D10780E0D6
:0825A0000807A9F7F894FFCF2A
:1025A800FF00003A078000363738391B1D1A1C0017
:1025B8000000000202D501EB06AB01CE01BB01AC65
:1025C8000100000000C6050305490513067A0558F1
:1025D800056C050000000003070305EB06EA060D7D
:1025E8000A00536572766F20616E676C65206973A7
:1025F800206F7574206F662072616E676521000018
:00000001FF
